:020000042000DA
:1000000000000120910100207F03002081030020D7
:1000100083030020850300208703002000000000E8
:100020000000000000000000000000008903002024
:100030008B030020000000008D0300208F030020B0
:1000400091030020930300209503002097030020D4
:10005000990300209B0300209D0300209F030020A4
:10006000A1030020A3030020A5030020A703002074
:10007000A9030020AB030020AD030020AF03002044
:10008000B1030020B3030020B5030020F1040020D9
:10009000B9030020BB030020BD030020BF030020E4
:1000A000C1030020C3030020C5030020610B002012
:1000B000590C0020CB030020CD030020CF030020EB
:1000C000D1030020D3030020D5030020D703002054
:1000D000D9030020DB030020DD030020DF03002024
:1000E000E1030020E3030020E5030020E7030020F4
:1000F000E9030020EB030020ED030020EF030020C4
:10010000F1030020F3030020F5030020F703002093
:10011000F9030020FB030020FD030020FF03002063
:10012000010400200304002005040020070400202F
:10013000090400200B0400200D0400200F040020FF
:1001400011040020130400201504002017040020CF
:10015000190400201B0400201D0400201F0400209F
:10016000210400202304002025040020270400206F
:10017000290400202B0400202D0400202F0400203F
:1001800031040020330400200000000000000000C3
:100190004FF0000BDFF8BE020068DFF8B612096806
:1001A00001F0030100F01C00142801D14BF0020BF8
:1001B000002901D04BF0010BBBF1000F05D0A7487F
:1001C000A749DFF8722200F09FF8A64880470BF09D
:1001D000020ABAF1000F0CD0DFF86E02DFF86E12DF
:1001E00002680B680FB44FF000024FF0FF0302608B
:1001F0000B609D484FF000024FF00103022808D128
:10020000DFF83A120A60DFF83E120A60DFF83212B5
:100210000B60012808D1DFF82A120A60DFF82612E5
:100220000A60DFF81A120B609048002809D1904844
:100230009049914A00F030F890489149914A00F075
:100240002BF891489149924A00F026F8914892493A
:10025000DFF8E22100F058F8BBF1000F10D08F4812
:100260008F49DFF8D62100F04FF80BF0020ABAF1FF
:10027000000F05D00FBC02600B6000BFAFF3008021
:10028000DFF820020FF2030E00474FF000004FF09E
:100290000001DFF814F2FEE72DE9F841884225D08D
:1002A000B2EB010200D5FEE740EA010313F00303BD
:1002B00002D000F01DF819E04FF000039046121133
:1002C000F7D09A421CBFF0C8F0C103F10103F8D186
:1002D00008F00F08B8F1000F08D004780C7000F196
:1002E000010001F10101B8F10108F6D1BDE8F88182
:1002F00008B54FF0000303780B7000F1010001F125
:100300000101013AF7D108BD884237D000F0030659
:10031000002E14D04FF00405A5EB06044FF008079B
:1003200007FB06F8914669FA08F9002C07D080F817
:10033000009069FA07F900F10100013CF5E74FF080
:1003400000060F46091A88460911914614461546BB
:10035000B14206D018BFA0E8340206F10106B1424E
:10036000F8D108F00F08B8F1000F07D002704FEA7B
:10037000322200F10100B8F10108F4E77047FEE70E
:10038000FEE7FEE7FEE7FEE7FEE7FEE7FEE7FEE745
:10039000FEE7FEE7FEE7FEE7FEE7FEE7FEE7FEE735
:1003A000FEE7FEE7FEE7FEE7FEE7FEE7FEE7FEE725
:1003B000FEE7FEE7FEE7FEE7FEE7FEE7FEE7FEE715
:1003C000FEE7FEE7FEE7FEE7FEE7FEE7FEE7FEE705
:1003D000FEE7FEE7FEE7FEE7FEE7FEE7FEE7FEE7F5
:1003E000FEE7FEE7FEE7FEE7FEE7FEE7FEE7FEE7E5
:1003F000FEE7FEE7FEE7FEE7FEE7FEE7FEE7FEE7D5
:10040000FEE7FEE7FEE7FEE7FEE7FEE7FEE7FEE7C4
:10041000FEE7FEE7FEE7FEE7FEE7FEE7FEE7FEE7B4
:10042000FEE7FEE7FEE7FEE7FEE7FEE7FEE7FEE7A4
:10043000FEE7FEE7704700000000A2A2A2A2008033
:100440000340088003401080034030800340348024
:1004500003403880034018080240000000F00020EC
:10046000000001201D0E0020000000000000000020
:10047000000000200000002090010020B0040020B7
:10048000B0040020E0130020E0130020E01300205F
:100490005014002050140020E0140020E01400202C
:1004A00000F0002095110020211000200000000025
:1004B00010B5054C237833B9044B13B10448AFF39E
:1004C00000800123237010BD5014002000000000A4
:1004D000BC13002008B5034B1BB103490348AFF31D
:1004E000008008BD0000000054140020BC13002050
:1004F00080B582B000AF0F4B5B68FB710D4B9B6802
:10050000DAB2FB791340FB71FB7903F00203BB7194
:10051000BB79002B01D000F0E7F8FB7903F0010371
:100520007B717B79002B01D000F006F800BF083703
:10053000BD4680BD0060014080B584B000AF634B14
:100540001B78052B6DD0052B00F3AF80012B02D05B
:10055000022B39D0A9E05E4B1B889BB2002B2FD019
:100560005C4B1B685A4A128892B21146184600F03A
:1005700009FA7860564B1B889BB21A467B689342F7
:100580000FD2534B1B889AB27B689BB2D31A9AB294
:100590004F4B1A804F4B1A687B6813444D4A1360C7
:1005A00090E04B4B00221A804B4B1B68002B03D072
:1005B000464B02221A7085E0444B03221A7081E0F8
:1005C00000BE00F0B9F97DE0434B1B68002B24D03E
:1005D000424B1B68404A12681146184600F0D2F997
:1005E000B8603D4B1B68BA689A420CD23A4B1A6805
:1005F000BB68D31A384A1360384B1A68BB68134477
:10060000364A13605EE0364B9B68354A23F001039F
:1006100093602E4B03221A7054E000BE00F08CF958
:1006200050E02D4B1B68002B1BD12E4B1B68002B61
:1006300014D02C4B1B68294898470346264A136060
:10064000254B1B68002B0CD1254B9B68244A23F0BB
:10065000010393601D4B03221A7002E000BE00F0FC
:100660006BF91D4B1B68002B09D11D4B9B681C4A65
:1006700023F001039360154B03221A7022E0174BFD
:100680001B68154A12681146184600F07BF9F8609D
:10069000114B1A68FB68D31A0F4A13600F4B1A6884
:1006A000FB6813440D4A13600CE00D4B9B680C4A29
:1006B00023F001039360002000F01EF9034B002299
:1006C0001A7000BF00BF1037BD4680BD91140020D6
:1006D00074140020701400207C1400207814002072
:1006E000006001408C14002080B584B000AF7C4BCA
:1006F0001B69FB81FB8923F4FF4323F07F03BB814C
:10070000FB89FB72774B1B78052B00F2D68001A288
:1007100052F823F02D070020A7080020A70800208A
:1007200085070020D30700207B080020BB89002B11
:1007300000F0CA80FB7AF12B06D0FB7A7B717B79C3
:10074000184600F04FF9BFE0674B00221A80674B54
:100750001B68654A128892B21344FA7A1A70624B87
:100760001B889BB201339AB25F4B1A805F4B1B68A8
:100770005D4A128892B2134400221A70594B042227
:100780001A70A1E0BB89002B00F0A080FB7AFB71FE
:10079000574B1B78DBB2FA799A4215D1524B0022A3
:1007A0001A80524B1B68504A128892B21344FA794D
:1007B0001A704D4B1B889BB201339AB24A4B1A8078
:1007C000484B04221A7081E0FB79184600F00AF9C0
:1007D0007CE0BB89002B06D0FB7A3B723B7A184643
:1007E00000F000F974E0414B1A683F4B1B889BB244
:1007F000013B13441B78F12B16D13C4B1B683A4A42
:10080000128892B21344FA7A1A70384B1A68364B2F
:100810001B889BB2013B13441B78184600F0E2F89A
:10082000304B00221A7053E02F4B1B889AB2314B89
:100830001B889A4210D2FB7A7B722C4B1B682A4A87
:10084000128892B213447A7A1A70274B1B889BB293
:1008500001339AB2244B1A80234B1B889AB2254B42
:100860001B889A4234D1204B1B889BB2184600F05B
:1008700043F81C4B00221A702AE0BB89002B0BD1D5
:100880001A4B1B680133FA7A1A70022000F034F810
:10089000144B00221A701EE0FB7ABB72BB7A18461A
:1008A00000F0A0F817E0BB89002B13D0FB7ABB71D6
:1008B000BB79184600F096F80CE0002000F01CF818
:1008C000084B00221A7006E000BF04E000BF02E0FF
:1008D00000BF00E000BF00BF1037BD4680BD00BFB5
:1008E0000060014091140020861400208014002034
:1008F0006C1400208414002080B582B000AF034641
:10090000FB800A4B1B68002B0CD0084B1B68084A65
:100910001268F98810469847044B00221A60054B6C
:1009200000221A7000BF0837BD4680BD8814002021
:10093000801400209014002080B582B000AF0E4BD0
:100940001B78DBB2002B13D00C4B1B889BB21846D4
:10095000FFF7D2FF0A4B1B68094A43F001031360FB
:10096000074B1B6803F001037B607B68002BF7D10A
:1009700000BF0837BD4680BD9014002086140020BB
:100980000060014080B485B000AF78603960144BDE
:100990001B68134A23F0040313600023FB60104B11
:1009A0005B6803F00103BB600DE07A68FB681344E9
:1009B0001A780B4B1A61FB680133FB60084B5B68CC
:1009C00003F00103BB60BB68002B03D0FA683B68EF
:1009D0009A42EAD3FB6818461437BD4680BC70477C
:1009E0000060014080B582B000AF0346FB71064B4A
:1009F0001B68002B04D0044B1B68FA7910469847FB
:100A000000BF0837BD4680BD9414002080B485B077
:100A100000AFF860B9607A60FB704D484D4B1A68C2
:100A2000F97813469B001344DB01034403F5E2739A
:100A300019604949474B1A6813469B0013449B00B1
:100A40000B440433FA681A604349424B1A68134650
:100A50009B0013449B000B440833BA681A603E495C
:100A60003C4B1A6813469B0013449B000B440C3309
:100A70001B683948374A11681A0C12040B469B0050
:100A80000B449B0003440C331A607B68B3F5803F32
:100A90000FD97B68A3F58033304A1361BB6803F537
:100AA00080332E4AD360FB6803F580332B4A936072
:100AB0001AE02949274B1A6813469B0013449B00F0
:100AC0000B440C331B687A6892B211462248214AC3
:100AD0001268194313469B0013449B0003440C33D4
:100AE00019601E4B00221A611B491A4B1A681346E3
:100AF0009B0013449B000B440C331B681648154A9B
:100B0000126843F4E00113469B0013449B00034426
:100B10000C3319600E490F4B1A6813469B0013449F
:100B2000DB010B4403F5E07301221A600849094B0D
:100B30001A6813469B001344DB010B4403F5E6736C
:100B400000221A6000BF1437BD4680BC704700BF4A
:100B500000002842B01400200040014098140020FA
:100B6000684620F007018D4689B500AF354A364BFF
:100B70001B6803F52873012142F823103349324BD7
:100B80001A6813469B0013449B000B440C331B68EC
:100B90002E482D4A126823F4E00113469B001344AB
:100BA0009B0003440C331960274B1B680133264A12
:100BB0001360254B1B68042B02D1234B00221A60C3
:100BC000234B1B69002B17D0224B1B68042B03D12E
:100BD000204B00221A6004E01E4B1B6801331D4AA3
:100BE00013601B4B98681A4BD968194B1A69184B3C
:100BF0001B7DFFF70BFF1EE01449134B1A681346C9
:100C00009B0013449B000B440C331B6803F4E0036C
:100C1000002B10D10C4B00221A600E4B00221A60E0
:100C20000B4B01221A700A4B5B68002B03D0084B58
:100C30005B680120984700BFBD46BDE889408546F6
:100C4000704700BF00002842B4140020004001405B
:100C500098140020B0140020684620F007018D464B
:100C600081B583B000AF394B1B683B603B6803F430
:100C700070633B603B68002B2FD03549354B1A68B9
:100C800013469B001344DB010B4403F502731B68FE
:100C9000002B0AD0304B02221A702F4B5B68002BBE
:100CA00003D02D4B5B68022098472949294B1A68CD
:100CB00013469B001344DB010B4403F503731B68CD
:100CC000002B0AD0244B03221A70234B5B68002BA5
:100CD00003D0214B5B68032098471C4B1B683B608B
:100CE0003B6803F470433B603B68002B0AD01A4B0F
:100CF00004221A70184B5B68002B03D0164B5B68FC
:100D00000420984700237B6014E011497A68134659
:100D10009B001344DB010B4403F5E47301221A60CA
:100D20000B4A7B6803F52873012142F823107B6886
:100D300001337B607B68032BE7D900BF00BF0C3712
:100D4000BD46BDE881408546704700BF0040014078
:100D500000002842B41400209814002080B483B00E
:100D600000AF7860FEE780B485B000AFF860B9608E
:100D70007A603B60002318461437BD4680BC70473C
:100D800080B586B000AF78601F4B1B68002B02D186
:100D90001D4B1E4A1A601C4B1B687B61EFF30883D6
:100DA0003B61194B1B683A699A420FD9164B1A6876
:100DB0007B6813443A699A421AD21923144A0121D2
:100DC0000020FFF7D0FF0120FFF7C8FF114BFB60A9
:100DD0000D4B1A687B681344FA689A4208D21923AB
:100DE0000D4A01210020FFF7BEFF0120FFF7B6FFEB
:100DF000054B1A687B681344034A13607B691846E5
:100E00001837BD4680BD00BFB8140020E014002094
:100E10008C13002000F00020A813002080B500AF44
:100E200000F030F8044B5B69034A43F400735361EC
:100E3000FFF700FB00BF80BD00ED00E080B483B091
:100E400000AF0E4BD3F84C313B603B684FF60202CB
:100E5000934204D03B680A4A934203D005E0012341
:100E60007B6005E002237B6002E000237B6000BF23
:100E70007B6818460C37BD4680BC70470080034035
:100E800002F8010080B582B000AFFFF7D7FF7860AD
:100E90007B68012B02D100F007F800E000BF00BF23
:100EA0000837BD4680BD000080B400AF094BD3F8C1
:100EB0009830084A43F48073C2F89830054BD3F851
:100EC0009830044A23F08063C2F8983000BFBD46D2
:100ED00080BC7047008003402DE9F04F95B000AF13
:100EE000F861B9617A610023FB644FF001024FF0B1
:100EF00000037869A0F12006C0F1200103FA00F593
:100F000002FA06F6354322FA01F10D4302FA00F423
:100F100014F1FF33BB6045F1FF33FB60D7E90234C6
:100F2000C7E910340023BB646FE000F07BF903468F
:100F30005A429BB292B258BF5342FB63FB69FA6BB1
:100F40001A60FB695B68BB63FB699B687B637B6BB7
:100F500018464FF000014FF000024FF0000303006D
:100F60000022B96B08464FF0000142EA000A43EA4A
:100F7000010BC7E90AAB00F055F902467B69C3F1E2
:100F8000290392FBF3F103FB01F3D31A7B62D7E948
:100F90001023796AA1F12004C1F1200003FA01F9BC
:100FA00002FA04F449EA040922FA00F049EA0009C5
:100FB00002FA01F8D7E90A2382EA0801396083EAD4
:100FC00009037B60D7E90034C7E90A34BB6ABB6315
:100FD000D7E90A014FF000024FF000030A00002396
:100FE00013467B63BB69BA6B1A60BB697A6B5A6044
:100FF000BB699B683B623A6AFB6B9A4202D1FB6C0D
:101000000133FB64BB6C0133BB64BB6CB3F57A7F0B
:101010008BDBFB6C18465437BD46BDE8F08F0000F3
:101020002DE9B04394B000AF4AF66D33FB64232042
:1010300000F0D4F84FF04052FB6C13604FF0405377
:101040005B68BB644FF040539B687B647B6C1846C5
:101050004FF000014FF000024FF0000303000022A8
:10106000B96C08464FF0000142EA000443EA01056A
:10107000C7E90E45D7E90E23904683F00609C7E974
:101080000E89BB6BBB64D7E90E014FF000024FF035
:1010900000030A00002313467B643D4ABB6C1360C7
:1010A0003B4A7B6C53603A4B9B687B6300233B63FA
:1010B0000023FB620023BB6200237B6200233B62B0
:1010C0000023FB610023BB6100237B6100233B61A4
:1010D0000023FB600023BB6000237B6000222C49BF
:1010E0004FF04050FFF7F8FE3863022228494FF0D6
:1010F0004050FFF7F1FEF862032225494FF04050BF
:10110000FFF7EAFEB862042221494FF04050FFF792
:10111000E3FE786205221E494FF04050FFF7DCFEE7
:10112000386206221A494FF04050FFF7D5FEF861A9
:10113000072217494FF04050FFF7CEFEB861082252
:1011400013494FF04050FFF7C7FE7861092210495C
:101150004FF04050FFF7C0FE38610A220C494FF0B3
:101160004050FFF7B9FEF8600B2209494FF040509C
:10117000FFF7B2FEB8600C2205494FF04050FFF770
:10118000ABFE7860002318465037BD46BDE8B083FB
:101190000010003070B500260C4D0D4C641BA410DF
:1011A000A64209D100F00AF900260A4D0A4C641B38
:1011B000A410A64205D170BD55F8043B98470136EE
:1011C000EEE755F8043B98470136F2E7D4130020C8
:1011D000D4130020D4130020D813002038B50D4BB1
:1011E00004461D68AB6B7BB9182000F04FF80A4A23
:1011F0000A4BA863C0E90023094B012283600B233B
:1012000083810023C0E904230022AB6B1C615A6177
:1012100038BD00BFE01300200E33CDAB34126DE6B5
:10122000ECDE0500134B10B51C68A36B7BB91820CE
:1012300000F02CF8104A114BA063C0E90023104BBA
:10124000012283600B2383810023C0E90423A16B67
:101250000C480A694B6950430B4C04FB0300A2FB8A
:1012600004345A1C044444F10000C1E9042020F075
:10127000004010BDE01300200E33CDAB34126DE6FC
:10128000ECDE05002DF451582D7F954C024B0146A4
:10129000186800F003B800BFE0130020F8B5CD1CBB
:1012A00025F0030508350C2D38BF0C25002D06460A
:1012B00001DBA94203D90C2333600020F8BD00F004
:1012C00057F821490A6814469CB9204F3B6823B956
:1012D0002146304600F03CF838602946304600F0A0
:1012E00037F8431C23D10C233046336000F046F816
:1012F000E3E723685B1B17D40B2B03D923601C4443
:10130000256004E06368A2420CBF0B605360304666
:1013100000F034F804F10B00231D20F00700C21A7E
:10132000CCD01B1AA350C9E722466468CCE7C41C82
:1013300024F00304A042E3D0211A304600F008F85C
:101340000130DDD1CFE700BFBC140020C014002065
:1013500038B50023054D044608462B60FFF710FD05
:10136000431C02D12B6803B1236038BDC414002094
:10137000014800F009B800BFCC140020014800F07B
:1013800004B800BFCC1400207047704748656170F6
:1013900020616E6420737461636B20636F6C6C6991
:1013A00073696F6E0A0000004F7574206F662068C5
:1013B000656170206D656D6F72790A00F8B500BFC8
:1013C000F8BC08BC9E467047F8B500BFF8BC08BC26
:1013D0009E467047D5040020B104002000000000A4
:1013E000E4130020000000000000000000000000E6
:1013F00000000000000000000000000000000000ED
:1014000000000000000000000000000000000000DC
:1014100000000000000000000000000000000000CC
:1014200000000000000000000000000000000000BC
:1014300000000000000000000000000000000000AC
:10144000000000000000000000000000000000009C
:040000052000019145
:00000001FF
